{
  "contractName": "complianceChecking",
  "abi": [
    {
      "anonymous": false,
      "inputs": [
        {
          "indexed": false,
          "internalType": "string",
          "name": "id",
          "type": "string"
        },
        {
          "indexed": false,
          "internalType": "string",
          "name": "dataHash",
          "type": "string"
        },
        {
          "indexed": false,
          "internalType": "bool",
          "name": "comp",
          "type": "bool"
        },
        {
          "indexed": false,
          "internalType": "uint256",
          "name": "timestamp",
          "type": "uint256"
        }
      ],
      "name": "PKComplianceEvent",
      "type": "event"
    },
    {
      "anonymous": false,
      "inputs": [
        {
          "indexed": false,
          "internalType": "string",
          "name": "id",
          "type": "string"
        },
        {
          "indexed": false,
          "internalType": "string",
          "name": "dataHash",
          "type": "string"
        },
        {
          "indexed": false,
          "internalType": "bool",
          "name": "comp",
          "type": "bool"
        },
        {
          "indexed": false,
          "internalType": "uint256",
          "name": "timestamp",
          "type": "uint256"
        }
      ],
      "name": "pHCompliance",
      "type": "event"
    },
    {
      "inputs": [
        {
          "internalType": "string",
          "name": "farmerID",
          "type": "string"
        },
        {
          "internalType": "string",
          "name": "dataHash",
          "type": "string"
        },
        {
          "internalType": "uint256",
          "name": "p",
          "type": "uint256"
        },
        {
          "internalType": "uint256",
          "name": "k",
          "type": "uint256"
        }
      ],
      "name": "findPKCompliance",
      "outputs": [
        {
          "internalType": "string",
          "name": "",
          "type": "string"
        },
        {
          "internalType": "bool",
          "name": "",
          "type": "bool"
        }
      ],
      "stateMutability": "nonpayable",
      "type": "function"
    },
    {
      "inputs": [
        {
          "internalType": "string",
          "name": "farmerID",
          "type": "string"
        },
        {
          "internalType": "string",
          "name": "dataHash",
          "type": "string"
        },
        {
          "internalType": "uint256",
          "name": "pH",
          "type": "uint256"
        }
      ],
      "name": "findpHCompliance",
      "outputs": [
        {
          "internalType": "string",
          "name": "",
          "type": "string"
        },
        {
          "internalType": "bool",
          "name": "",
          "type": "bool"
        }
      ],
      "stateMutability": "nonpayable",
      "type": "function"
    }
  ],
  "bytecode": "0x608060405234801561001057600080fd5b50610599806100206000396000f3fe608060405234801561001057600080fd5b50600436106100365760003560e01c80632d9c4bcf1461003b578063faa16f021461006c575b600080fd5b610055600480360381019061005091906102a4565b61009d565b60405161006392919061038e565b60405180910390f35b61008660048036038101906100819190610225565b610132565b60405161009492919061038e565b60405180910390f35b60606000806101fe85101580156100b657506103208511155b80156100d2575061277484101580156100d15750613a988411155b5b156100e057600190506100e5565b600090505b7fa8fe0d157e61b891882f0257d7c83f879739e3985c91f1d3d0f3dc6a66b70d028787834260405161011a94939291906103be565b60405180910390a18681925092505094509492505050565b6060600080603f8410158015610149575060418411155b15610157576001905061015c565b600090505b7f374cf6987f21221955830525e459414269e775599085d94d41429945419724d08686834260405161019194939291906103be565b60405180910390a185819250925050935093915050565b60006101bb6101b684610436565b610411565b9050828152602081018484840111156101d357600080fd5b6101de848285610499565b509392505050565b600082601f8301126101f757600080fd5b81356102078482602086016101a8565b91505092915050565b60008135905061021f8161054c565b92915050565b60008060006060848603121561023a57600080fd5b600084013567ffffffffffffffff81111561025457600080fd5b610260868287016101e6565b935050602084013567ffffffffffffffff81111561027d57600080fd5b610289868287016101e6565b925050604061029a86828701610210565b9150509250925092565b600080600080608085870312156102ba57600080fd5b600085013567ffffffffffffffff8111156102d457600080fd5b6102e0878288016101e6565b945050602085013567ffffffffffffffff8111156102fd57600080fd5b610309878288016101e6565b935050604061031a87828801610210565b925050606061032b87828801610210565b91505092959194509250565b61034081610483565b82525050565b600061035182610467565b61035b8185610472565b935061036b8185602086016104a8565b6103748161053b565b840191505092915050565b6103888161048f565b82525050565b600060408201905081810360008301526103a88185610346565b90506103b76020830184610337565b9392505050565b600060808201905081810360008301526103d88187610346565b905081810360208301526103ec8186610346565b90506103fb6040830185610337565b610408606083018461037f565b95945050505050565b600061041b61042c565b905061042782826104db565b919050565b6000604051905090565b600067ffffffffffffffff8211156104515761045061050c565b5b61045a8261053b565b9050602081019050919050565b600081519050919050565b600082825260208201905092915050565b60008115159050919050565b6000819050919050565b82818337600083830152505050565b60005b838110156104c65780820151818401526020810190506104ab565b838111156104d5576000848401525b50505050565b6104e48261053b565b810181811067ffffffffffffffff821117156105035761050261050c565b5b80604052505050565b7f4e487b7100000000000000000000000000000000000000000000000000000000600052604160045260246000fd5b6000601f19601f8301169050919050565b6105558161048f565b811461056057600080fd5b5056fea264697066735822122081f212522262ea4a68f31e74104f3a35f7cf71639c9cfffde0511d941fa0787964736f6c63430008030033",
  "immutableReferences": {},
  "source": "// SPDX-License-Identifier: MIT\r\npragma solidity ^0.8.3;\r\n\r\n\r\ncontract complianceChecking{\r\n    \r\n    //events to record compliance checking results\r\n    event PKComplianceEvent(string id, string dataHash, bool comp, uint256 timestamp);\r\n    event pHCompliance(string id, string dataHash, bool comp, uint256 timestamp);\r\n    \r\n    \r\n    //P K value passed are P x 100 and K x 100 to include 2 decimal points, because floating is not supported by solidity\r\n    //function will return (farmerID,complianceoutcome) as two parameters\r\n    function findPKCompliance(string memory farmerID, string memory dataHash, uint p, uint k) public returns(string memory,bool){\r\n        \r\n        bool outcome;\r\n        \r\n        if ((p>=510 && p <= 800) && (k>=10100 && k<=15000)){\r\n            outcome=true;\r\n        }\r\n        else{\r\n            outcome=false;\r\n        }\r\n    \r\n        //fire the event\r\n        emit PKComplianceEvent(farmerID,dataHash,outcome,block.timestamp);\r\n        \r\n        return (farmerID,outcome);\r\n    }\r\n    \r\n    \r\n    //pH is pHx10 to include one decimal point\r\n    function findpHCompliance(string memory farmerID, string memory dataHash, uint pH) public returns(string memory, bool){\r\n        bool outcome;\r\n        \r\n        if (pH>=63 && pH<=65){\r\n            outcome=true;\r\n        }else{\r\n            outcome=false;\r\n        }\r\n        \r\n        //fire the event to record events\r\n        emit pHCompliance(farmerID,dataHash,outcome,block.timestamp);\r\n        \r\n        return(farmerID,outcome);\r\n    }\r\n    \r\n    \r\n}  ",
  "sourcePath": "C:/Users/Kosala/EthereumTutorial/fullDAPP1/contracts/SoilCompliance.sol",
  "compiler": {
    "name": "solc",
    "version": "0.8.3+commit.8d00100c.Emscripten.clang"
  },
  "schemaVersion": "3.3.4",
  "updatedAt": "2021-04-06T11:51:22.672Z",
  "devdoc": {
    "kind": "dev",
    "methods": {},
    "version": 1
  },
  "userdoc": {
    "kind": "user",
    "methods": {},
    "version": 1
  }
}