{
  "contractName": "Simple",
  "abi": [
    {
      "anonymous": false,
      "inputs": [
        {
          "indexed": false,
          "internalType": "string",
          "name": "user",
          "type": "string"
        },
        {
          "indexed": false,
          "internalType": "uint256",
          "name": "timestamp",
          "type": "uint256"
        }
      ],
      "name": "eventAddUser",
      "type": "event"
    },
    {
      "constant": true,
      "inputs": [
        {
          "internalType": "string",
          "name": "",
          "type": "string"
        }
      ],
      "name": "users",
      "outputs": [
        {
          "internalType": "string",
          "name": "",
          "type": "string"
        }
      ],
      "payable": false,
      "stateMutability": "view",
      "type": "function"
    },
    {
      "constant": false,
      "inputs": [
        {
          "internalType": "string",
          "name": "_id",
          "type": "string"
        },
        {
          "internalType": "string",
          "name": "_userHash",
          "type": "string"
        }
      ],
      "name": "addUserHash",
      "outputs": [],
      "payable": false,
      "stateMutability": "nonpayable",
      "type": "function"
    },
    {
      "constant": true,
      "inputs": [
        {
          "internalType": "string",
          "name": "_id",
          "type": "string"
        }
      ],
      "name": "getUserHash",
      "outputs": [
        {
          "internalType": "string",
          "name": "",
          "type": "string"
        }
      ],
      "payable": false,
      "stateMutability": "view",
      "type": "function"
    },
    {
      "constant": true,
      "inputs": [
        {
          "internalType": "string",
          "name": "_id",
          "type": "string"
        },
        {
          "internalType": "uint256[]",
          "name": "_intData",
          "type": "uint256[]"
        }
      ],
      "name": "getDataObject",
      "outputs": [
        {
          "components": [
            {
              "internalType": "string",
              "name": "id",
              "type": "string"
            },
            {
              "internalType": "uint256",
              "name": "q1",
              "type": "uint256"
            },
            {
              "internalType": "uint256",
              "name": "q2",
              "type": "uint256"
            },
            {
              "internalType": "uint256",
              "name": "q3",
              "type": "uint256"
            },
            {
              "internalType": "uint256",
              "name": "q4",
              "type": "uint256"
            },
            {
              "internalType": "uint256",
              "name": "q5",
              "type": "uint256"
            }
          ],
          "internalType": "struct Simple.Data",
          "name": "",
          "type": "tuple"
        }
      ],
      "payable": false,
      "stateMutability": "pure",
      "type": "function"
    },
    {
      "constant": true,
      "inputs": [
        {
          "internalType": "uint256",
          "name": "n1",
          "type": "uint256"
        },
        {
          "internalType": "uint256",
          "name": "n2",
          "type": "uint256"
        }
      ],
      "name": "testCompliance",
      "outputs": [
        {
          "internalType": "uint256[]",
          "name": "result",
          "type": "uint256[]"
        }
      ],
      "payable": false,
      "stateMutability": "view",
      "type": "function"
    },
    {
      "constant": true,
      "inputs": [
        {
          "components": [
            {
              "internalType": "string",
              "name": "id",
              "type": "string"
            },
            {
              "internalType": "uint256",
              "name": "q1",
              "type": "uint256"
            },
            {
              "internalType": "uint256",
              "name": "q2",
              "type": "uint256"
            },
            {
              "internalType": "uint256",
              "name": "q3",
              "type": "uint256"
            },
            {
              "internalType": "uint256",
              "name": "q4",
              "type": "uint256"
            },
            {
              "internalType": "uint256",
              "name": "q5",
              "type": "uint256"
            }
          ],
          "internalType": "struct Simple.Data",
          "name": "_data",
          "type": "tuple"
        }
      ],
      "name": "findComplience",
      "outputs": [
        {
          "internalType": "string[]",
          "name": "compOutcome",
          "type": "string[]"
        }
      ],
      "payable": false,
      "stateMutability": "pure",
      "type": "function"
    }
  ],
  "bytecode": "0x608060405234801561001057600080fd5b506112e3806100206000396000f3fe608060405234801561001057600080fd5b50600436106100625760003560e01c80630654aa91146100675780632a5b548714610083578063689e1c03146100b3578063c0a2c03c146100e3578063f1c0d57014610113578063fa4af9a414610143575b600080fd5b610081600480360361007c9190810190610c6e565b610173565b005b61009d60048036036100989190810190610c02565b6101e3565b6040516100aa91906110a8565b60405180910390f35b6100cd60048036036100c89190810190610b80565b61029c565b6040516100da9190611034565b60405180910390f35b6100fd60048036036100f89190810190610bc1565b610362565b60405161010a9190611056565b60405180910390f35b61012d60048036036101289190810190610d1b565b610422565b60405161013a9190611012565b60405180910390f35b61015d60048036036101589190810190610cda565b610494565b60405161016a9190610ff0565b60405180910390f35b806000836040516101849190610fd9565b908152602001604051809103902090805190602001906101a59291906108b1565b507f31288da5d3e9d68198b1b94ae2537ec67d1d0a344320131f5227a08fea969b0481426040516101d7929190611078565b60405180910390a15050565b6101eb610931565b6101f3610931565b8381600001819052508260008151811061020957fe5b60200260200101518160200181815250508260018151811061022757fe5b60200260200101518160400181815250508260028151811061024557fe5b60200260200101518160600181815250508260038151811061026357fe5b60200260200101518160800181815250508260048151811061028157fe5b60200260200101518160a00181815250508091505092915050565b6000818051602081018201805184825260208301602085012081835280955050505050506000915090508054600181600116156101000203166002900480601f01602080910402602001604051908101604052809291908181526020018280546001816001161561010002031660029004801561035a5780601f1061032f5761010080835404028352916020019161035a565b820191906000526020600020905b81548152906001019060200180831161033d57829003601f168201915b505050505081565b60606000826040516103749190610fd9565b90815260200160405180910390208054600181600116156101000203166002900480601f0160208091040260200160405190810160405280929190818152602001828054600181600116156101000203166002900480156104165780601f106103eb57610100808354040283529160200191610416565b820191906000526020600020905b8154815290600101906020018083116103f957829003601f168201915b50505050509050919050565b606060026040519080825280602002602001820160405280156104545781602001602082028038833980820191505090505b509050828160008151811061046557fe5b602002602001018181525050818160018151811061047f57fe5b60200260200101818152505080905092915050565b606060066040519080825280602002602001820160405280156104cb57816020015b60608152602001906001900390816104b65790505b509050600080905082600001518282815181106104e457fe5b60200260200101819052508080600101915050603c8360200151111561055e576040518060400160405280600381526020017f594553000000000000000000000000000000000000000000000000000000000081525082828151811061054657fe5b602002602001018190525080806001019150506105b4565b6040518060400160405280600281526020017f4e4f0000000000000000000000000000000000000000000000000000000000008152508282815181106105a057fe5b602002602001018190525080806001019150505b60508360400151111561061b576040518060400160405280600381526020017f594553000000000000000000000000000000000000000000000000000000000081525082828151811061060357fe5b60200260200101819052508080600101915050610671565b6040518060400160405280600281526020017f4e4f00000000000000000000000000000000000000000000000000000000000081525082828151811061065d57fe5b602002602001018190525080806001019150505b6055836060015111156106d8576040518060400160405280600381526020017f59455300000000000000000000000000000000000000000000000000000000008152508282815181106106c057fe5b6020026020010181905250808060010191505061072e565b6040518060400160405280600281526020017f4e4f00000000000000000000000000000000000000000000000000000000000081525082828151811061071a57fe5b602002602001018190525080806001019150505b604b83608001511115610795576040518060400160405280600381526020017f594553000000000000000000000000000000000000000000000000000000000081525082828151811061077d57fe5b602002602001018190525080806001019150506107eb565b6040518060400160405280600281526020017f4e4f0000000000000000000000000000000000000000000000000000000000008152508282815181106107d757fe5b602002602001018190525080806001019150505b60548360a001511115610852576040518060400160405280600381526020017f594553000000000000000000000000000000000000000000000000000000000081525082828151811061083a57fe5b602002602001018190525080806001019150506108a8565b6040518060400160405280600281526020017f4e4f00000000000000000000000000000000000000000000000000000000000081525082828151811061089457fe5b602002602001018190525080806001019150505b81915050919050565b828054600181600116156101000203166002900490600052602060002090601f016020900481019282601f106108f257805160ff1916838001178555610920565b82800160010185558215610920579182015b8281111561091f578251825591602001919060010190610904565b5b50905061092d9190610967565b5090565b6040518060c001604052806060815260200160008152602001600081526020016000815260200160008152602001600081525090565b61098991905b8082111561098557600081600090555060010161096d565b5090565b90565b600082601f83011261099d57600080fd5b81356109b06109ab826110f7565b6110ca565b915081818352602084019350602081019050838560208402820111156109d557600080fd5b60005b83811015610a0557816109eb8882610b6b565b8452602084019350602083019250506001810190506109d8565b5050505092915050565b600082601f830112610a2057600080fd5b8135610a33610a2e8261111f565b6110ca565b91508082526020830160208301858383011115610a4f57600080fd5b610a5a838284611236565b50505092915050565b600082601f830112610a7457600080fd5b8135610a87610a828261114b565b6110ca565b91508082526020830160208301858383011115610aa357600080fd5b610aae838284611236565b50505092915050565b600060c08284031215610ac957600080fd5b610ad360c06110ca565b9050600082013567ffffffffffffffff811115610aef57600080fd5b610afb84828501610a0f565b6000830152506020610b0f84828501610b6b565b6020830152506040610b2384828501610b6b565b6040830152506060610b3784828501610b6b565b6060830152506080610b4b84828501610b6b565b60808301525060a0610b5f84828501610b6b565b60a08301525092915050565b600081359050610b7a81611289565b92915050565b600060208284031215610b9257600080fd5b600082013567ffffffffffffffff811115610bac57600080fd5b610bb884828501610a0f565b91505092915050565b600060208284031215610bd357600080fd5b600082013567ffffffffffffffff811115610bed57600080fd5b610bf984828501610a63565b91505092915050565b60008060408385031215610c1557600080fd5b600083013567ffffffffffffffff811115610c2f57600080fd5b610c3b85828601610a63565b925050602083013567ffffffffffffffff811115610c5857600080fd5b610c648582860161098c565b9150509250929050565b60008060408385031215610c8157600080fd5b600083013567ffffffffffffffff811115610c9b57600080fd5b610ca785828601610a63565b925050602083013567ffffffffffffffff811115610cc457600080fd5b610cd085828601610a63565b9150509250929050565b600060208284031215610cec57600080fd5b600082013567ffffffffffffffff811115610d0657600080fd5b610d1284828501610ab7565b91505092915050565b60008060408385031215610d2e57600080fd5b6000610d3c85828601610b6b565b9250506020610d4d85828601610b6b565b9150509250929050565b6000610d638383610ec0565b905092915050565b6000610d778383610fbb565b60208301905092915050565b6000610d8e82611197565b610d9881856111dd565b935083602082028501610daa85611177565b8060005b85811015610de65784840389528151610dc78582610d57565b9450610dd2836111c3565b925060208a01995050600181019050610dae565b50829750879550505050505092915050565b6000610e03826111a2565b610e0d81856111ee565b9350610e1883611187565b8060005b83811015610e49578151610e308882610d6b565b9750610e3b836111d0565b925050600181019050610e1c565b5085935050505092915050565b6000610e61826111b8565b610e6b8185611210565b9350610e7b818560208601611245565b610e8481611278565b840191505092915050565b6000610e9a826111b8565b610ea48185611221565b9350610eb4818560208601611245565b80840191505092915050565b6000610ecb826111ad565b610ed581856111ff565b9350610ee5818560208601611245565b610eee81611278565b840191505092915050565b6000610f04826111ad565b610f0e8185611210565b9350610f1e818560208601611245565b610f2781611278565b840191505092915050565b600060c0830160008301518482036000860152610f4f8282610ec0565b9150506020830151610f646020860182610fbb565b506040830151610f776040860182610fbb565b506060830151610f8a6060860182610fbb565b506080830151610f9d6080860182610fbb565b5060a0830151610fb060a0860182610fbb565b508091505092915050565b610fc48161122c565b82525050565b610fd38161122c565b82525050565b6000610fe58284610e8f565b915081905092915050565b6000602082019050818103600083015261100a8184610d83565b905092915050565b6000602082019050818103600083015261102c8184610df8565b905092915050565b6000602082019050818103600083015261104e8184610ef9565b905092915050565b600060208201905081810360008301526110708184610e56565b905092915050565b600060408201905081810360008301526110928185610e56565b90506110a16020830184610fca565b9392505050565b600060208201905081810360008301526110c28184610f32565b905092915050565b6000604051905081810181811067ffffffffffffffff821117156110ed57600080fd5b8060405250919050565b600067ffffffffffffffff82111561110e57600080fd5b602082029050602081019050919050565b600067ffffffffffffffff82111561113657600080fd5b601f19601f8301169050602081019050919050565b600067ffffffffffffffff82111561116257600080fd5b601f19601f8301169050602081019050919050565b6000819050602082019050919050565b6000819050602082019050919050565b600081519050919050565b600081519050919050565b600081519050919050565b600081519050919050565b6000602082019050919050565b6000602082019050919050565b600082825260208201905092915050565b600082825260208201905092915050565b600082825260208201905092915050565b600082825260208201905092915050565b600081905092915050565b6000819050919050565b82818337600083830152505050565b60005b83811015611263578082015181840152602081019050611248565b83811115611272576000848401525b50505050565b6000601f19601f8301169050919050565b6112928161122c565b811461129d57600080fd5b5056fea365627a7a72315820c3d885bdc86db068caae74fd5d93adb9faf8011a622df65d1ba35a7dd81ce39e6c6578706572696d656e74616cf564736f6c63430005100040",
  "source": "pragma solidity ^0.5.16;\r\npragma experimental ABIEncoderV2;\r\n\r\ncontract Simple{\r\n    \r\n    struct Data{\r\n        string id;\r\n        uint q1;\r\n        uint q2;\r\n        uint q3;\r\n        uint q4;\r\n        uint q5;\r\n    }\r\n\r\n    mapping(string=>string) public users;//size of mapping cannot find in solidity\r\n    event eventAddUser(string user, uint256 timestamp); //events are not readable from solidity\r\n    \r\n     \r\n    function addUserHash(string memory _id, string memory _userHash) public {\r\n        users[_id]=_userHash; \r\n        \r\n        emit eventAddUser(_userHash,block.timestamp);\r\n    }\r\n\r\n    \r\n    function getUserHash(string memory _id) public view returns(string memory){\r\n        return users[_id];\r\n    }\r\n    \r\n    //pure does  not read state and does not change state\r\n    //view does not change state but can read state\r\n    function getDataObject(string memory _id, uint[] memory _intData) public pure returns(Data memory){\r\n        Data memory data;\r\n        data.id=_id;\r\n        data.q1=_intData[0];\r\n        data.q2=_intData[1];\r\n        data.q3=_intData[2];\r\n        data.q4=_intData[3];\r\n        data.q5=_intData[4];\r\n        \r\n        return data;\r\n    }\r\n    \r\n\r\n    //This is for testing purpose only\r\n    //view does not change state but can read state\r\n    function testCompliance(uint n1, uint n2)public view returns(uint[] memory result){\r\n        \r\n        result=new uint[](2);\r\n        \r\n        result[0]=n1;\r\n        result[1]=n2;\r\n        \r\n\r\n        return result;\r\n        \r\n    }\r\n\r\n    \r\n    //check complience and return True/False outcome with percentage\r\n    function findComplience(Data memory _data)public pure returns(string[] memory compOutcome){\r\n        \r\n        compOutcome=new string[](6);\r\n        uint i=0;\r\n        compOutcome[i]=_data.id; i++;\r\n        \r\n        \r\n        if (_data.q1>60){\r\n            compOutcome[i]=\"YES\";i++;\r\n        }\r\n        else{\r\n            compOutcome[i]=\"NO\";i++;\r\n        }\r\n            \r\n            \r\n            \r\n        if (_data.q2>80){\r\n            compOutcome[i]=\"YES\";i++;\r\n        }\r\n        else{\r\n            compOutcome[i]=\"NO\";i++;\r\n        }\r\n            \r\n            \r\n        if (_data.q3>85){\r\n            compOutcome[i]=\"YES\";i++;\r\n        }\r\n        else{\r\n            compOutcome[i]=\"NO\";i++;\r\n        }   \r\n            \r\n            \r\n        if (_data.q4>75){\r\n            compOutcome[i]=\"YES\";i++;\r\n        }\r\n        else{\r\n            compOutcome[i]=\"NO\";i++;\r\n        }\r\n            \r\n            \r\n        if (_data.q5>84){\r\n            compOutcome[i]=\"YES\";i++;\r\n        }\r\n        else{\r\n            compOutcome[i]=\"NO\";i++;\r\n        }\r\n            \r\n        return compOutcome;\r\n    }\r\n    \r\n}",
  "sourcePath": "C:/Users/Kosala/EthereumTutorial/fullDAPP1/contracts/Simple.sol",
  "compiler": {
    "name": "solc",
    "version": "0.5.16+commit.9c3226ce.Emscripten.clang"
  },
  "schemaVersion": "3.3.4",
  "updatedAt": "2021-03-26T12:03:06.709Z",
  "networkType": "ethereum",
  "devdoc": {
    "methods": {}
  },
  "userdoc": {
    "methods": {}
  }
}