{
  "contractName": "SoilCompliance",
  "abi": [
    {
      "anonymous": false,
      "inputs": [
        {
          "indexed": false,
          "internalType": "string",
          "name": "id",
          "type": "string"
        },
        {
          "indexed": false,
          "internalType": "string",
          "name": "dataHash",
          "type": "string"
        },
        {
          "indexed": false,
          "internalType": "bool",
          "name": "comp",
          "type": "bool"
        },
        {
          "indexed": false,
          "internalType": "uint256",
          "name": "timestamp",
          "type": "uint256"
        }
      ],
      "name": "PKComplianceEvent",
      "type": "event"
    },
    {
      "anonymous": false,
      "inputs": [
        {
          "indexed": false,
          "internalType": "string",
          "name": "id",
          "type": "string"
        },
        {
          "indexed": false,
          "internalType": "string",
          "name": "dataHash",
          "type": "string"
        },
        {
          "indexed": false,
          "internalType": "bool",
          "name": "comp",
          "type": "bool"
        },
        {
          "indexed": false,
          "internalType": "uint256",
          "name": "timestamp",
          "type": "uint256"
        }
      ],
      "name": "pHCompliance",
      "type": "event"
    },
    {
      "inputs": [
        {
          "internalType": "string",
          "name": "farmerID",
          "type": "string"
        },
        {
          "internalType": "string",
          "name": "dataHash",
          "type": "string"
        },
        {
          "internalType": "uint256",
          "name": "p",
          "type": "uint256"
        },
        {
          "internalType": "uint256",
          "name": "k",
          "type": "uint256"
        }
      ],
      "name": "findPKCompliance",
      "outputs": [],
      "stateMutability": "nonpayable",
      "type": "function"
    },
    {
      "inputs": [
        {
          "internalType": "string",
          "name": "farmerID",
          "type": "string"
        },
        {
          "internalType": "string",
          "name": "dataHash",
          "type": "string"
        },
        {
          "internalType": "uint256",
          "name": "pH",
          "type": "uint256"
        }
      ],
      "name": "findpHCompliance",
      "outputs": [],
      "stateMutability": "nonpayable",
      "type": "function"
    }
  ],
  "bytecode": "0x608060405234801561001057600080fd5b50610527806100206000396000f3fe608060405234801561001057600080fd5b50600436106100365760003560e01c80632d9c4bcf1461003b578063faa16f0214610057575b600080fd5b61005560048036038101906100509190610262565b610073565b005b610071600480360381019061006c91906101e3565b6100fc565b005b60006101fe831015801561008957506103208311155b80156100a5575061277482101580156100a45750613a988211155b5b156100b357600190506100b8565b600090505b7fa8fe0d157e61b891882f0257d7c83f879739e3985c91f1d3d0f3dc6a66b70d02858583426040516100ed949392919061034c565b60405180910390a15050505050565b6000603f8210158015610110575060418211155b1561011e5760019050610123565b600090505b7f374cf6987f21221955830525e459414269e775599085d94d41429945419724d084848342604051610158949392919061034c565b60405180910390a150505050565b6000610179610174846103c4565b61039f565b90508281526020810184848401111561019157600080fd5b61019c848285610427565b509392505050565b600082601f8301126101b557600080fd5b81356101c5848260208601610166565b91505092915050565b6000813590506101dd816104da565b92915050565b6000806000606084860312156101f857600080fd5b600084013567ffffffffffffffff81111561021257600080fd5b61021e868287016101a4565b935050602084013567ffffffffffffffff81111561023b57600080fd5b610247868287016101a4565b9250506040610258868287016101ce565b9150509250925092565b6000806000806080858703121561027857600080fd5b600085013567ffffffffffffffff81111561029257600080fd5b61029e878288016101a4565b945050602085013567ffffffffffffffff8111156102bb57600080fd5b6102c7878288016101a4565b93505060406102d8878288016101ce565b92505060606102e9878288016101ce565b91505092959194509250565b6102fe81610411565b82525050565b600061030f826103f5565b6103198185610400565b9350610329818560208601610436565b610332816104c9565b840191505092915050565b6103468161041d565b82525050565b600060808201905081810360008301526103668187610304565b9050818103602083015261037a8186610304565b905061038960408301856102f5565b610396606083018461033d565b95945050505050565b60006103a96103ba565b90506103b58282610469565b919050565b6000604051905090565b600067ffffffffffffffff8211156103df576103de61049a565b5b6103e8826104c9565b9050602081019050919050565b600081519050919050565b600082825260208201905092915050565b60008115159050919050565b6000819050919050565b82818337600083830152505050565b60005b83811015610454578082015181840152602081019050610439565b83811115610463576000848401525b50505050565b610472826104c9565b810181811067ffffffffffffffff821117156104915761049061049a565b5b80604052505050565b7f4e487b7100000000000000000000000000000000000000000000000000000000600052604160045260246000fd5b6000601f19601f8301169050919050565b6104e38161041d565b81146104ee57600080fd5b5056fea264697066735822122051d33e916a71b89db2d21b2d3fa7e47d54a408ba145457faeae87b8a8d35809964736f6c63430008030033",
  "immutableReferences": {},
  "source": "// SPDX-License-Identifier: MIT\r\npragma solidity ^0.8.3;\r\n\r\n\r\ncontract SoilCompliance{\r\n    \r\n    //events to record compliance checking results\r\n    event PKComplianceEvent(string id, string dataHash, bool comp, uint256 timestamp);\r\n    event pHCompliance(string id, string dataHash, bool comp, uint256 timestamp);\r\n    \r\n    \r\n    //P K value passed are P x 100 and K x 100 to include 2 decimal points, because floating is not supported by solidity\r\n    //state change functions cannot return values\r\n    function findPKCompliance(string memory farmerID, string memory dataHash, uint p, uint k) public{\r\n        \r\n        bool outcome;\r\n        \r\n        if ((p>=510 && p <= 800) && (k>=10100 && k<=15000)){\r\n            outcome=true;\r\n        }\r\n        else{\r\n            outcome=false;\r\n        }\r\n    \r\n        //fire the event\r\n        emit PKComplianceEvent(farmerID,dataHash,outcome,block.timestamp);\r\n        \r\n    }\r\n    \r\n    \r\n    //pH is pHx10 to include one decimal point\r\n    //state change functions cannot return values.\r\n    function findpHCompliance(string memory farmerID, string memory dataHash, uint pH) public {\r\n        bool outcome;\r\n        \r\n        if (pH>=63 && pH<=65){\r\n            outcome=true;\r\n        }else{\r\n            outcome=false;\r\n        }\r\n        \r\n        //fire the event to record events\r\n        emit pHCompliance(farmerID,dataHash,outcome,block.timestamp);\r\n        \r\n    }\r\n    \r\n    \r\n}  ",
  "sourcePath": "C:/Users/Kosala/EthereumTutorial/fullDAPP1/contracts/SoilCompliance.sol",
  "compiler": {
    "name": "solc",
    "version": "0.8.3+commit.8d00100c.Emscripten.clang"
  },
  "schemaVersion": "3.3.4",
  "updatedAt": "2021-04-07T10:25:40.928Z",
  "networkType": "ethereum",
  "devdoc": {
    "kind": "dev",
    "methods": {},
    "version": 1
  },
  "userdoc": {
    "kind": "user",
    "methods": {},
    "version": 1
  }
}